:1000000000308A0019280000233084008313000880
:10001000031918280130F800F701F70B0D28F80B29
:100020000C284A30F700F70B13281628800B0A28F3
:10003000080003081F39830083168E158312A00160
:10004000A10107309F00831383160108C7390838C0
:100050008100831290010030F80092000030831676
:100060009200073083129F00831605088500023036
:10007000F700F70B39283C28000083121F080C13E7
:1000800083169F01C03083128B04FF3083168600D5
:10009000831220080602031955280130A100FF3001
:1000A0008316860083120608A000210B7C28A00876
:1000B000031D6B28831685010130831285001430DF
:1000C000A200FA30A3000420A20B61288316850148
:1000D000831285017B2883168501023083128500F7
:1000E0001430A200FA30A3000420A20B7228831659
:0C00F000850183128501A10145286300F1
:02400E00383F39
:00000001FF
;PIC16F628A
;CRC=9C30  CREATED="03-nov-17 13:13"
